S00D00004C616262312E7372656375
S11300000C942E000C9443000C9443000C94430075
S11300100C9443000C9443000C9443000C94430050
S11300200C9443000C9443000C9443000C94430040
S11300300C9443000C9443000C9443000C94430030
S11300400C9443000C9443000C9443000C94430020
S11300500C9443000C9443000C94430011241FBEE1
S1130060CFEFD4E0DEBFCDBF11E0A0E0B1E0ECEF14
S1130070F0E002C005900D92A431B107D9F70E94B7
S113008045000C947C000C9400000E944F0061E039
S113009070E080E30E945F0080E090E0089580E8D3
S11300A08093610080EC8093E40087EB8093E5000B
S11300B087E08093E6008FE08093E7000895663040
S11300C07105C8F4282F30E0205331092A30310556
S11300D090F4E82FF0E0EE0FFF1FE056FF4F808111
S11300E01092FB001092F600982F907F9093F100ED
S10F00F08F708093EC000895F894FFCF0B
S11300FC51151001111E111B500B411B411F1101F5
S107010C511F510B1F
S9030000FC
