:100000000C942E000C9438000C9438000C9438009A
:100010000C9438000C9438000C9438000C94380080
:100020000C9438000C9438000C9438000C94380070
:100030000C9438000C9438000C9438000C94380060
:100040000C9438000C9438000C9438000C94380050
:100050000C9438000C9438000C94380011241FBE06
:10006000CFEFD4E0DEBFCDBF0E943A000C944D002C
:100070000C9400000E943D00FFCF80E88093610057
:1000800080EC8093E40087EB8093E50087E0809329
:0E009000E6008FE08093E7000895F894FFCF1C
:00000001FF
